{
  "abi": [
    {
      "inputs": [
        {
          "internalType": "contract FactItem",
          "name": "_factItem",
          "type": "address"
        }
      ],
      "stateMutability": "nonpayable",
      "type": "constructor"
    },
    {
      "anonymous": false,
      "inputs": [
        {
          "indexed": true,
          "internalType": "uint256",
          "name": "factId",
          "type": "uint256"
        },
        {
          "indexed": true,
          "internalType": "address",
          "name": "voter",
          "type": "address"
        },
        {
          "indexed": false,
          "internalType": "enum VoteManager.VoteChoice",
          "name": "vote",
          "type": "uint8"
        }
      ],
      "name": "Vote",
      "type": "event"
    },
    {
      "inputs": [
        {
          "internalType": "address",
          "name": "_addr",
          "type": "address"
        }
      ],
      "name": "getNumVotedFactsForAddress",
      "outputs": [
        {
          "internalType": "uint256",
          "name": "numFacts",
          "type": "uint256"
        }
      ],
      "stateMutability": "view",
      "type": "function"
    },
    {
      "inputs": [
        {
          "internalType": "uint256",
          "name": "_factId",
          "type": "uint256"
        }
      ],
      "name": "getNumVotesForFact",
      "outputs": [
        {
          "internalType": "uint256",
          "name": "numVoteFor",
          "type": "uint256"
        },
        {
          "internalType": "uint256",
          "name": "numVoteAgainst",
          "type": "uint256"
        }
      ],
      "stateMutability": "view",
      "type": "function"
    },
    {
      "inputs": [
        {
          "internalType": "address",
          "name": "_addr",
          "type": "address"
        },
        {
          "internalType": "uint256",
          "name": "_factId",
          "type": "uint256"
        }
      ],
      "name": "getVoteForAddress",
      "outputs": [
        {
          "internalType": "enum VoteManager.VoteChoice",
          "name": "vote",
          "type": "uint8"
        }
      ],
      "stateMutability": "view",
      "type": "function"
    },
    {
      "inputs": [
        {
          "internalType": "uint256",
          "name": "_factId",
          "type": "uint256"
        },
        {
          "internalType": "enum VoteManager.VoteChoice",
          "name": "_vote",
          "type": "uint8"
        }
      ],
      "name": "vote",
      "outputs": [],
      "stateMutability": "nonpayable",
      "type": "function"
    }
  ],
  "bytecode": "608060405234801561001057600080fd5b506040516107d53803806107d583398101604081905261002f91610054565b600080546001600160a01b0319166001600160a01b0392909216919091179055610084565b60006020828403121561006657600080fd5b81516001600160a01b038116811461007d57600080fd5b9392505050565b610742806100936000396000f3fe608060405234801561001057600080fd5b506004361061004c5760003560e01c80632f286695146100515780637e24313d14610093578063943e8216146100b4578063d199607e146100c9575b600080fd5b61007961005f36600461058a565b600090815260036020526040902080546001909101549091565b604080519283526020830191909152015b60405180910390f35b6100a66100a13660046105bb565b61010e565b60405190815260200161008a565b6100c76100c23660046105d8565b61013e565b005b6101016100d736600461060c565b6001600160a01b039091166000908152600160209081526040808320938352929052205460ff1690565b60405161008a919061064e565b6001600160a01b038116600090815260026020526040812060018101548154610137919061068c565b9392505050565b60008054906101000a90046001600160a01b03166001600160a01b03166318160ddd6040518163ffffffff1660e01b815260040160206040518083038186803b15801561018a57600080fd5b505afa15801561019e573d6000803e3d6000fd5b505050506040513d601f19601f820116820180604052508101906101c291906106a4565b8211156102165760405162461bcd60e51b815260206004820152601860248201527f6e6f6e2d6578697374656e74206661637420666f72204944000000000000000060448201526064015b60405180910390fd5b6000546040516331a9108f60e11b8152600481018490526001600160a01b0390911690636352211e9060240160206040518083038186803b15801561025a57600080fd5b505afa15801561026e573d6000803e3d6000fd5b505050506040513d601f19601f8201168201806040525081019061029291906106bd565b6001600160a01b0316336001600160a01b031614156102e75760405162461bcd60e51b81526020600482015260116024820152706f776e65722063616e6e6f7420766f746560781b604482015260640161020d565b33600090815260016020908152604080832085845290915290205460ff16600281111561031657610316610638565b81600281111561032857610328610638565b141561036c5760405162461bcd60e51b8152602060048201526013602482015272766f746520646f65736e2774206368616e676560681b604482015260640161020d565b3360009081526001602081815260408084208685529091529091205460ff169081600281111561039e5761039e610638565b14156103e8573360009081526002602052604081208054916103bf836106da565b909155505060008381526003602052604081208054916103de836106da565b9190505550610448565b60028160028111156103fc576103fc610638565b141561044857336000908152600260205260408120600101805491610420836106da565b90915550506000838152600360205260408120600101805491610442836106da565b91905055505b3360009081526001602081815260408084208785529091529091208054849260ff199091169083600281111561048057610480610638565b0217905550600182600281111561049957610499610638565b14156104e3573360009081526002602052604081208054916104ba836106f1565b909155505060008381526003602052604081208054916104d9836106f1565b9190505550610543565b60028260028111156104f7576104f7610638565b14156105435733600090815260026020526040812060010180549161051b836106f1565b9091555050600083815260036020526040812060010180549161053d836106f1565b91905055505b336001600160a01b0316837fe4cb5fdde90708dcd00ddb58b9b33a631db90db5fc195227ff5c7657700115b48460405161057d919061064e565b60405180910390a3505050565b60006020828403121561059c57600080fd5b5035919050565b6001600160a01b03811681146105b857600080fd5b50565b6000602082840312156105cd57600080fd5b8135610137816105a3565b600080604083850312156105eb57600080fd5b8235915060208301356003811061060157600080fd5b809150509250929050565b6000806040838503121561061f57600080fd5b823561062a816105a3565b946020939093013593505050565b634e487b7160e01b600052602160045260246000fd5b602081016003831061067057634e487b7160e01b600052602160045260246000fd5b91905290565b634e487b7160e01b600052601160045260246000fd5b6000821982111561069f5761069f610676565b500190565b6000602082840312156106b657600080fd5b5051919050565b6000602082840312156106cf57600080fd5b8151610137816105a3565b6000816106e9576106e9610676565b506000190190565b600060001982141561070557610705610676565b506001019056fea2646970667358221220334f4f9c87df06b82bb677250e9f21701991be99877ca89ec105b577cfe36d1f64736f6c63430008090033",
  "bytecodeSha1": "a629ad7c12015342f3828bc3daec590f7feb5920",
  "compiler": {
    "evm_version": "istanbul",
    "optimizer": {
      "enabled": true,
      "runs": 200
    },
    "version": "0.8.9+commit.e5eed63a"
  },
  "contractName": "VoteManager",
  "language": "Solidity",
  "natspec": {
    "kind": "dev",
    "methods": {},
    "version": 1
  },
  "opcodes": "PUSH1 0x80 PUSH1 0x40 MSTORE CALLVALUE DUP1 ISZERO PUSH2 0x10 JUMPI PUSH1 0x0 DUP1 REVERT JUMPDEST POP PUSH1 0x4 CALLDATASIZE LT PUSH2 0x4C JUMPI PUSH1 0x0 CALLDATALOAD PUSH1 0xE0 SHR DUP1 PUSH4 0x2F286695 EQ PUSH2 0x51 JUMPI DUP1 PUSH4 0x7E24313D EQ PUSH2 0x93 JUMPI DUP1 PUSH4 0x943E8216 EQ PUSH2 0xB4 JUMPI DUP1 PUSH4 0xD199607E EQ PUSH2 0xC9 JUMPI JUMPDEST PUSH1 0x0 DUP1 REVERT JUMPDEST PUSH2 0x79 PUSH2 0x5F CALLDATASIZE PUSH1 0x4 PUSH2 0x58A JUMP JUMPDEST PUSH1 0x0 SWAP1 DUP2 MSTORE PUSH1 0x3 PUSH1 0x20 MSTORE PUSH1 0x40 SWAP1 KECCAK256 DUP1 SLOAD PUSH1 0x1 SWAP1 SWAP2 ADD SLOAD SWAP1 SWAP2 JUMP JUMPDEST PUSH1 0x40 DUP1 MLOAD SWAP3 DUP4 MSTORE PUSH1 0x20 DUP4 ADD SWAP2 SWAP1 SWAP2 MSTORE ADD JUMPDEST PUSH1 0x40 MLOAD DUP1 SWAP2 SUB SWAP1 RETURN JUMPDEST PUSH2 0xA6 PUSH2 0xA1 CALLDATASIZE PUSH1 0x4 PUSH2 0x5BB JUMP JUMPDEST PUSH2 0x10E JUMP JUMPDEST PUSH1 0x40 MLOAD SWAP1 DUP2 MSTORE PUSH1 0x20 ADD PUSH2 0x8A JUMP JUMPDEST PUSH2 0xC7 PUSH2 0xC2 CALLDATASIZE PUSH1 0x4 PUSH2 0x5D8 JUMP JUMPDEST PUSH2 0x13E JUMP JUMPDEST STOP JUMPDEST PUSH2 0x101 PUSH2 0xD7 CALLDATASIZE PUSH1 0x4 PUSH2 0x60C JUMP JUMPDEST PUSH1 0x1 PUSH1 0x1 PUSH1 0xA0 SHL SUB SWAP1 SWAP2 AND PUSH1 0x0 SWAP1 DUP2 MSTORE PUSH1 0x1 PUSH1 0x20 SWAP1 DUP2 MSTORE PUSH1 0x40 DUP1 DUP4 KECCAK256 SWAP4 DUP4 MSTORE SWAP3 SWAP1 MSTORE KECCAK256 SLOAD PUSH1 0xFF AND SWAP1 JUMP JUMPDEST PUSH1 0x40 MLOAD PUSH2 0x8A SWAP2 SWAP1 PUSH2 0x64E JUMP JUMPDEST PUSH1 0x1 PUSH1 0x1 PUSH1 0xA0 SHL SUB DUP2 AND PUSH1 0x0 SWAP1 DUP2 MSTORE PUSH1 0x2 PUSH1 0x20 MSTORE PUSH1 0x40 DUP2 KECCAK256 PUSH1 0x1 DUP2 ADD SLOAD DUP2 SLOAD PUSH2 0x137 SWAP2 SWAP1 PUSH2 0x68C JUMP JUMPDEST SWAP4 SWAP3 POP POP POP JUMP JUMPDEST PUSH1 0x0 DUP1 SLOAD SWAP1 PUSH2 0x100 EXP SWAP1 DIV PUSH1 0x1 PUSH1 0x1 PUSH1 0xA0 SHL SUB AND PUSH1 0x1 PUSH1 0x1 PUSH1 0xA0 SHL SUB AND PUSH4 0x18160DDD PUSH1 0x40 MLOAD DUP2 PUSH4 0xFFFFFFFF AND PUSH1 0xE0 SHL DUP2 MSTORE PUSH1 0x4 ADD PUSH1 0x20 PUSH1 0x40 MLOAD DUP1 DUP4 SUB DUP2 DUP7 DUP1 EXTCODESIZE ISZERO DUP1 ISZERO PUSH2 0x18A JUMPI PUSH1 0x0 DUP1 REVERT JUMPDEST POP GAS STATICCALL ISZERO DUP1 ISZERO PUSH2 0x19E JUMPI RETURNDATASIZE PUSH1 0x0 DUP1 RETURNDATACOPY RETURNDATASIZE PUSH1 0x0 REVERT JUMPDEST POP POP POP POP PUSH1 0x40 MLOAD RETURNDATASIZE PUSH1 0x1F NOT PUSH1 0x1F DUP3 ADD AND DUP3 ADD DUP1 PUSH1 0x40 MSTORE POP DUP2 ADD SWAP1 PUSH2 0x1C2 SWAP2 SWAP1 PUSH2 0x6A4 JUMP JUMPDEST DUP3 GT ISZERO PUSH2 0x216 JUMPI PUSH1 0x40 MLOAD PUSH3 0x461BCD PUSH1 0xE5 SHL DUP2 MSTORE PUSH1 0x20 PUSH1 0x4 DUP3 ADD MSTORE PUSH1 0x18 PUSH1 0x24 DUP3 ADD MSTORE PUSH32 0x6E6F6E2D6578697374656E74206661637420666F722049440000000000000000 PUSH1 0x44 DUP3 ADD MSTORE PUSH1 0x64 ADD JUMPDEST PUSH1 0x40 MLOAD DUP1 SWAP2 SUB SWAP1 REVERT JUMPDEST PUSH1 0x0 SLOAD PUSH1 0x40 MLOAD PUSH4 0x31A9108F PUSH1 0xE1 SHL DUP2 MSTORE PUSH1 0x4 DUP2 ADD DUP5 SWAP1 MSTORE PUSH1 0x1 PUSH1 0x1 PUSH1 0xA0 SHL SUB SWAP1 SWAP2 AND SWAP1 PUSH4 0x6352211E SWAP1 PUSH1 0x24 ADD PUSH1 0x20 PUSH1 0x40 MLOAD DUP1 DUP4 SUB DUP2 DUP7 DUP1 EXTCODESIZE ISZERO DUP1 ISZERO PUSH2 0x25A JUMPI PUSH1 0x0 DUP1 REVERT JUMPDEST POP GAS STATICCALL ISZERO DUP1 ISZERO PUSH2 0x26E JUMPI RETURNDATASIZE PUSH1 0x0 DUP1 RETURNDATACOPY RETURNDATASIZE PUSH1 0x0 REVERT JUMPDEST POP POP POP POP PUSH1 0x40 MLOAD RETURNDATASIZE PUSH1 0x1F NOT PUSH1 0x1F DUP3 ADD AND DUP3 ADD DUP1 PUSH1 0x40 MSTORE POP DUP2 ADD SWAP1 PUSH2 0x292 SWAP2 SWAP1 PUSH2 0x6BD JUMP JUMPDEST PUSH1 0x1 PUSH1 0x1 PUSH1 0xA0 SHL SUB AND CALLER PUSH1 0x1 PUSH1 0x1 PUSH1 0xA0 SHL SUB AND EQ ISZERO PUSH2 0x2E7 JUMPI PUSH1 0x40 MLOAD PUSH3 0x461BCD PUSH1 0xE5 SHL DUP2 MSTORE PUSH1 0x20 PUSH1 0x4 DUP3 ADD MSTORE PUSH1 0x11 PUSH1 0x24 DUP3 ADD MSTORE PUSH17 0x6F776E65722063616E6E6F7420766F7465 PUSH1 0x78 SHL PUSH1 0x44 DUP3 ADD MSTORE PUSH1 0x64 ADD PUSH2 0x20D JUMP JUMPDEST CALLER PUSH1 0x0 SWAP1 DUP2 MSTORE PUSH1 0x1 PUSH1 0x20 SWAP1 DUP2 MSTORE PUSH1 0x40 DUP1 DUP4 KECCAK256 DUP6 DUP5 MSTORE SWAP1 SWAP2 MSTORE SWAP1 KECCAK256 SLOAD PUSH1 0xFF AND PUSH1 0x2 DUP2 GT ISZERO PUSH2 0x316 JUMPI PUSH2 0x316 PUSH2 0x638 JUMP JUMPDEST DUP2 PUSH1 0x2 DUP2 GT ISZERO PUSH2 0x328 JUMPI PUSH2 0x328 PUSH2 0x638 JUMP JUMPDEST EQ ISZERO PUSH2 0x36C JUMPI PUSH1 0x40 MLOAD PUSH3 0x461BCD PUSH1 0xE5 SHL DUP2 MSTORE PUSH1 0x20 PUSH1 0x4 DUP3 ADD MSTORE PUSH1 0x13 PUSH1 0x24 DUP3 ADD MSTORE PUSH19 0x766F746520646F65736E2774206368616E6765 PUSH1 0x68 SHL PUSH1 0x44 DUP3 ADD MSTORE PUSH1 0x64 ADD PUSH2 0x20D JUMP JUMPDEST CALLER PUSH1 0x0 SWAP1 DUP2 MSTORE PUSH1 0x1 PUSH1 0x20 DUP2 DUP2 MSTORE PUSH1 0x40 DUP1 DUP5 KECCAK256 DUP7 DUP6 MSTORE SWAP1 SWAP2 MSTORE SWAP1 SWAP2 KECCAK256 SLOAD PUSH1 0xFF AND SWAP1 DUP2 PUSH1 0x2 DUP2 GT ISZERO PUSH2 0x39E JUMPI PUSH2 0x39E PUSH2 0x638 JUMP JUMPDEST EQ ISZERO PUSH2 0x3E8 JUMPI CALLER PUSH1 0x0 SWAP1 DUP2 MSTORE PUSH1 0x2 PUSH1 0x20 MSTORE PUSH1 0x40 DUP2 KECCAK256 DUP1 SLOAD SWAP2 PUSH2 0x3BF DUP4 PUSH2 0x6DA JUMP JUMPDEST SWAP1 SWAP2 SSTORE POP POP PUSH1 0x0 DUP4 DUP2 MSTORE PUSH1 0x3 PUSH1 0x20 MSTORE PUSH1 0x40 DUP2 KECCAK256 DUP1 SLOAD SWAP2 PUSH2 0x3DE DUP4 PUSH2 0x6DA JUMP JUMPDEST SWAP2 SWAP1 POP SSTORE POP PUSH2 0x448 JUMP JUMPDEST PUSH1 0x2 DUP2 PUSH1 0x2 DUP2 GT ISZERO PUSH2 0x3FC JUMPI PUSH2 0x3FC PUSH2 0x638 JUMP JUMPDEST EQ ISZERO PUSH2 0x448 JUMPI CALLER PUSH1 0x0 SWAP1 DUP2 MSTORE PUSH1 0x2 PUSH1 0x20 MSTORE PUSH1 0x40 DUP2 KECCAK256 PUSH1 0x1 ADD DUP1 SLOAD SWAP2 PUSH2 0x420 DUP4 PUSH2 0x6DA JUMP JUMPDEST SWAP1 SWAP2 SSTORE POP POP PUSH1 0x0 DUP4 DUP2 MSTORE PUSH1 0x3 PUSH1 0x20 MSTORE PUSH1 0x40 DUP2 KECCAK256 PUSH1 0x1 ADD DUP1 SLOAD SWAP2 PUSH2 0x442 DUP4 PUSH2 0x6DA JUMP JUMPDEST SWAP2 SWAP1 POP SSTORE POP JUMPDEST CALLER PUSH1 0x0 SWAP1 DUP2 MSTORE PUSH1 0x1 PUSH1 0x20 DUP2 DUP2 MSTORE PUSH1 0x40 DUP1 DUP5 KECCAK256 DUP8 DUP6 MSTORE SWAP1 SWAP2 MSTORE SWAP1 SWAP2 KECCAK256 DUP1 SLOAD DUP5 SWAP3 PUSH1 0xFF NOT SWAP1 SWAP2 AND SWAP1 DUP4 PUSH1 0x2 DUP2 GT ISZERO PUSH2 0x480 JUMPI PUSH2 0x480 PUSH2 0x638 JUMP JUMPDEST MUL OR SWAP1 SSTORE POP PUSH1 0x1 DUP3 PUSH1 0x2 DUP2 GT ISZERO PUSH2 0x499 JUMPI PUSH2 0x499 PUSH2 0x638 JUMP JUMPDEST EQ ISZERO PUSH2 0x4E3 JUMPI CALLER PUSH1 0x0 SWAP1 DUP2 MSTORE PUSH1 0x2 PUSH1 0x20 MSTORE PUSH1 0x40 DUP2 KECCAK256 DUP1 SLOAD SWAP2 PUSH2 0x4BA DUP4 PUSH2 0x6F1 JUMP JUMPDEST SWAP1 SWAP2 SSTORE POP POP PUSH1 0x0 DUP4 DUP2 MSTORE PUSH1 0x3 PUSH1 0x20 MSTORE PUSH1 0x40 DUP2 KECCAK256 DUP1 SLOAD SWAP2 PUSH2 0x4D9 DUP4 PUSH2 0x6F1 JUMP JUMPDEST SWAP2 SWAP1 POP SSTORE POP PUSH2 0x543 JUMP JUMPDEST PUSH1 0x2 DUP3 PUSH1 0x2 DUP2 GT ISZERO PUSH2 0x4F7 JUMPI PUSH2 0x4F7 PUSH2 0x638 JUMP JUMPDEST EQ ISZERO PUSH2 0x543 JUMPI CALLER PUSH1 0x0 SWAP1 DUP2 MSTORE PUSH1 0x2 PUSH1 0x20 MSTORE PUSH1 0x40 DUP2 KECCAK256 PUSH1 0x1 ADD DUP1 SLOAD SWAP2 PUSH2 0x51B DUP4 PUSH2 0x6F1 JUMP JUMPDEST SWAP1 SWAP2 SSTORE POP POP PUSH1 0x0 DUP4 DUP2 MSTORE PUSH1 0x3 PUSH1 0x20 MSTORE PUSH1 0x40 DUP2 KECCAK256 PUSH1 0x1 ADD DUP1 SLOAD SWAP2 PUSH2 0x53D DUP4 PUSH2 0x6F1 JUMP JUMPDEST SWAP2 SWAP1 POP SSTORE POP JUMPDEST CALLER PUSH1 0x1 PUSH1 0x1 PUSH1 0xA0 SHL SUB AND DUP4 PUSH32 0xE4CB5FDDE90708DCD00DDB58B9B33A631DB90DB5FC195227FF5C7657700115B4 DUP5 PUSH1 0x40 MLOAD PUSH2 0x57D SWAP2 SWAP1 PUSH2 0x64E JUMP JUMPDEST PUSH1 0x40 MLOAD DUP1 SWAP2 SUB SWAP1 LOG3 POP POP POP JUMP JUMPDEST PUSH1 0x0 PUSH1 0x20 DUP3 DUP5 SUB SLT ISZERO PUSH2 0x59C JUMPI PUSH1 0x0 DUP1 REVERT JUMPDEST POP CALLDATALOAD SWAP2 SWAP1 POP JUMP JUMPDEST PUSH1 0x1 PUSH1 0x1 PUSH1 0xA0 SHL SUB DUP2 AND DUP2 EQ PUSH2 0x5B8 JUMPI PUSH1 0x0 DUP1 REVERT JUMPDEST POP JUMP JUMPDEST PUSH1 0x0 PUSH1 0x20 DUP3 DUP5 SUB SLT ISZERO PUSH2 0x5CD JUMPI PUSH1 0x0 DUP1 REVERT JUMPDEST DUP2 CALLDATALOAD PUSH2 0x137 DUP2 PUSH2 0x5A3 JUMP JUMPDEST PUSH1 0x0 DUP1 PUSH1 0x40 DUP4 DUP6 SUB SLT ISZERO PUSH2 0x5EB JUMPI PUSH1 0x0 DUP1 REVERT JUMPDEST DUP3 CALLDATALOAD SWAP2 POP PUSH1 0x20 DUP4 ADD CALLDATALOAD PUSH1 0x3 DUP2 LT PUSH2 0x601 JUMPI PUSH1 0x0 DUP1 REVERT JUMPDEST DUP1 SWAP2 POP POP SWAP3 POP SWAP3 SWAP1 POP JUMP JUMPDEST PUSH1 0x0 DUP1 PUSH1 0x40 DUP4 DUP6 SUB SLT ISZERO PUSH2 0x61F JUMPI PUSH1 0x0 DUP1 REVERT JUMPDEST DUP3 CALLDATALOAD PUSH2 0x62A DUP2 PUSH2 0x5A3 JUMP JUMPDEST SWAP5 PUSH1 0x20 SWAP4 SWAP1 SWAP4 ADD CALLDATALOAD SWAP4 POP POP POP JUMP JUMPDEST PUSH4 0x4E487B71 PUSH1 0xE0 SHL PUSH1 0x0 MSTORE PUSH1 0x21 PUSH1 0x4 MSTORE PUSH1 0x24 PUSH1 0x0 REVERT JUMPDEST PUSH1 0x20 DUP2 ADD PUSH1 0x3 DUP4 LT PUSH2 0x670 JUMPI PUSH4 0x4E487B71 PUSH1 0xE0 SHL PUSH1 0x0 MSTORE PUSH1 0x21 PUSH1 0x4 MSTORE PUSH1 0x24 PUSH1 0x0 REVERT JUMPDEST SWAP2 SWAP1 MSTORE SWAP1 JUMP JUMPDEST PUSH4 0x4E487B71 PUSH1 0xE0 SHL PUSH1 0x0 MSTORE PUSH1 0x11 PUSH1 0x4 MSTORE PUSH1 0x24 PUSH1 0x0 REVERT JUMPDEST PUSH1 0x0 DUP3 NOT DUP3 GT ISZERO PUSH2 0x69F JUMPI PUSH2 0x69F PUSH2 0x676 JUMP JUMPDEST POP ADD SWAP1 JUMP JUMPDEST PUSH1 0x0 PUSH1 0x20 DUP3 DUP5 SUB SLT ISZERO PUSH2 0x6B6 JUMPI PUSH1 0x0 DUP1 REVERT JUMPDEST POP MLOAD SWAP2 SWAP1 POP JUMP JUMPDEST PUSH1 0x0 PUSH1 0x20 DUP3 DUP5 SUB SLT ISZERO PUSH2 0x6CF JUMPI PUSH1 0x0 DUP1 REVERT JUMPDEST DUP2 MLOAD PUSH2 0x137 DUP2 PUSH2 0x5A3 JUMP JUMPDEST PUSH1 0x0 DUP2 PUSH2 0x6E9 JUMPI PUSH2 0x6E9 PUSH2 0x676 JUMP JUMPDEST POP PUSH1 0x0 NOT ADD SWAP1 JUMP JUMPDEST PUSH1 0x0 PUSH1 0x0 NOT DUP3 EQ ISZERO PUSH2 0x705 JUMPI PUSH2 0x705 PUSH2 0x676 JUMP JUMPDEST POP PUSH1 0x1 ADD SWAP1 JUMP INVALID LOG2 PUSH5 0x6970667358 0x22 SLT KECCAK256 CALLER 0x4F 0x4F SWAP13 DUP8 0xDF MOD 0xB8 0x2B 0xB6 PUSH24 0x250E9F21701991BE99877CA89EC105B577CFE36D1F64736F PUSH13 0x63430008090033000000000000 ",
  "sha1": "077a6a4d3774b768f3af69b5e69dacacb6de8799",
  "source": "// SPDX-License-Identifier: MIT\npragma solidity 0.8.9;\n\nimport \"./FactItem.sol\";\n\ncontract VoteManager {\n    enum VoteChoice {\n        Neutral, For, Against\n    }\n\n    struct VoteInfo {\n        uint numVoteFor;\n        uint numVoteAgainst;\n    }\n\n    event Vote(uint indexed factId, address indexed voter, VoteChoice vote);\n\n    FactItem factItem;\n    mapping (address => mapping (uint => VoteChoice)) voteStatus;\n    mapping (address => VoteInfo) addressVoteInfo;\n    mapping (uint => VoteInfo) factVoteInfo;\n\n    constructor(\n        FactItem _factItem\n    ) {\n        factItem = _factItem;\n    }\n\n    function vote(uint _factId, VoteChoice _vote) external {\n        require(_factId <= factItem.totalSupply(), \"non-existent fact for ID\");\n        require(msg.sender != factItem.ownerOf(_factId), \"owner cannot vote\");\n        require(_vote != voteStatus[msg.sender][_factId], \"vote doesn't change\");\n\n        VoteChoice oldVote = voteStatus[msg.sender][_factId];\n        if (oldVote == VoteChoice.For) {\n            addressVoteInfo[msg.sender].numVoteFor--;\n            factVoteInfo[_factId].numVoteFor--;\n        } else if (oldVote == VoteChoice.Against) {\n            addressVoteInfo[msg.sender].numVoteAgainst--;\n            factVoteInfo[_factId].numVoteAgainst--;\n        }\n\n        voteStatus[msg.sender][_factId] = _vote;\n        if (_vote == VoteChoice.For) {\n            addressVoteInfo[msg.sender].numVoteFor++;\n            factVoteInfo[_factId].numVoteFor++;\n        } else if (_vote == VoteChoice.Against) {\n            addressVoteInfo[msg.sender].numVoteAgainst++;\n            factVoteInfo[_factId].numVoteAgainst++;\n        }\n\n        emit Vote(_factId, msg.sender, _vote);\n    }\n\n    function getNumVotedFactsForAddress(address _addr) view external returns (uint numFacts) {\n        VoteInfo storage voteInfo = addressVoteInfo[_addr];\n\n        numFacts = voteInfo.numVoteFor + voteInfo.numVoteAgainst;\n    }\n\n    function getVoteForAddress(address _addr, uint _factId) view external returns (VoteChoice vote) {\n        vote = voteStatus[_addr][_factId];\n    }\n\n    function getNumVotesForFact(uint _factId) view external returns (uint numVoteFor, uint numVoteAgainst) {       \n        VoteInfo storage voteInfo = factVoteInfo[_factId];\n\n        numVoteFor = voteInfo.numVoteFor;\n        numVoteAgainst = voteInfo.numVoteAgainst;\n    }\n}",
  "sourcePath": "contracts/VoteManager.sol",
  "type": "contract"
}